{
  "contractName": "FaceRegistry",
  "abi": [
    {
      "inputs": [
        {
          "internalType": "string",
          "name": "",
          "type": "string"
        }
      ],
      "name": "users",
      "outputs": [
        {
          "internalType": "string",
          "name": "name",
          "type": "string"
        },
        {
          "internalType": "uint256",
          "name": "age",
          "type": "uint256"
        },
        {
          "internalType": "string",
          "name": "gender",
          "type": "string"
        },
        {
          "internalType": "string",
          "name": "fileHash",
          "type": "string"
        },
        {
          "internalType": "string",
          "name": "faceHash",
          "type": "string"
        }
      ],
      "stateMutability": "view",
      "type": "function",
      "constant": true
    },
    {
      "inputs": [
        {
          "internalType": "string",
          "name": "name",
          "type": "string"
        },
        {
          "internalType": "uint256",
          "name": "age",
          "type": "uint256"
        },
        {
          "internalType": "string",
          "name": "gender",
          "type": "string"
        },
        {
          "internalType": "string",
          "name": "fileHash",
          "type": "string"
        },
        {
          "internalType": "string",
          "name": "faceHash",
          "type": "string"
        }
      ],
      "name": "register",
      "outputs": [],
      "stateMutability": "nonpayable",
      "type": "function"
    },
    {
      "inputs": [
        {
          "internalType": "string",
          "name": "faceHash",
          "type": "string"
        }
      ],
      "name": "authenticate",
      "outputs": [
        {
          "internalType": "string",
          "name": "name",
          "type": "string"
        },
        {
          "internalType": "uint256",
          "name": "age",
          "type": "uint256"
        },
        {
          "internalType": "string",
          "name": "gender",
          "type": "string"
        },
        {
          "internalType": "string",
          "name": "fileHash",
          "type": "string"
        },
        {
          "internalType": "bool",
          "name": "success",
          "type": "bool"
        }
      ],
      "stateMutability": "view",
      "type": "function",
      "constant": true
    }
  ],
  "bytecode": "0x608060405234801561001057600080fd5b50610f74806100206000396000f3fe608060405234801561001057600080fd5b50600436106100415760003560e01c8063689e1c0314610046578063aa613b291461007a578063d25030aa146100ae575b600080fd5b610060600480360381019061005b91906108b7565b6100ca565b604051610071959493929190610998565b60405180910390f35b610094600480360381019061008f91906108b7565b610336565b6040516100a5959493929190610a22565b60405180910390f35b6100c860048036038101906100c39190610ab6565b61063d565b005b60008180516020810182018051848252602083016020850120818352809550505050505060009150905080600001805461010390610bd0565b80601f016020809104026020016040519081016040528092919081815260200182805461012f90610bd0565b801561017c5780601f106101515761010080835404028352916020019161017c565b820191906000526020600020905b81548152906001019060200180831161015f57829003601f168201915b50505050509080600101549080600201805461019790610bd0565b80601f01602080910402602001604051908101604052809291908181526020018280546101c390610bd0565b80156102105780601f106101e557610100808354040283529160200191610210565b820191906000526020600020905b8154815290600101906020018083116101f357829003601f168201915b50505050509080600301805461022590610bd0565b80601f016020809104026020016040519081016040528092919081815260200182805461025190610bd0565b801561029e5780601f106102735761010080835404028352916020019161029e565b820191906000526020600020905b81548152906001019060200180831161028157829003601f168201915b5050505050908060040180546102b390610bd0565b80601f01602080910402602001604051908101604052809291908181526020018280546102df90610bd0565b801561032c5780601f106103015761010080835404028352916020019161032c565b820191906000526020600020905b81548152906001019060200180831161030f57829003601f168201915b5050505050905085565b606060006060806000806000876040516103509190610c3d565b90815260200160405180910390206040518060a001604052908160008201805461037990610bd0565b80601f01602080910402602001604051908101604052809291908181526020018280546103a590610bd0565b80156103f25780601f106103c7576101008083540402835291602001916103f2565b820191906000526020600020905b8154815290600101906020018083116103d557829003601f168201915b505050505081526020016001820154815260200160028201805461041590610bd0565b80601f016020809104026020016040519081016040528092919081815260200182805461044190610bd0565b801561048e5780601f106104635761010080835404028352916020019161048e565b820191906000526020600020905b81548152906001019060200180831161047157829003601f168201915b505050505081526020016003820180546104a790610bd0565b80601f01602080910402602001604051908101604052809291908181526020018280546104d390610bd0565b80156105205780601f106104f557610100808354040283529160200191610520565b820191906000526020600020905b81548152906001019060200180831161050357829003601f168201915b5050505050815260200160048201805461053990610bd0565b80601f016020809104026020016040519081016040528092919081815260200182805461056590610bd0565b80156105b25780601f10610587576101008083540402835291602001916105b2565b820191906000526020600020905b81548152906001019060200180831161059557829003601f168201915b5050505050815250509050600081600001515111156105f157806000015181602001518260400151836060015160019550955095509550955050610634565b6000806040518060200160405280600081525091906040518060200160405280600081525090604051806020016040528060008152509095509550955095509550505b91939590929450565b6000808260405161064e9190610c3d565b9081526020016040518091039020600001805461066a90610bd0565b9050146106ac576040517f08c379a00000000000000000000000000000000000000000000000000000000081526004016106a390610ca0565b60405180910390fd5b6040518060a00160405280868152602001858152602001848152602001838152602001828152506000826040516106e39190610c3d565b908152602001604051809103902060008201518160000190816107069190610e6c565b506020820151816001015560408201518160020190816107269190610e6c565b50606082015181600301908161073c9190610e6c565b5060808201518160040190816107529190610e6c565b509050505050505050565b6000604051905090565b600080fd5b600080fd5b600080fd5b600080fd5b6000601f19601f8301169050919050565b7f4e487b7100000000000000000000000000000000000000000000000000000000600052604160045260246000fd5b6107c48261077b565b810181811067ffffffffffffffff821117156107e3576107e261078c565b5b80604052505050565b60006107f661075d565b905061080282826107bb565b919050565b600067ffffffffffffffff8211156108225761082161078c565b5b61082b8261077b565b9050602081019050919050565b82818337600083830152505050565b600061085a61085584610807565b6107ec565b90508281526020810184848401111561087657610875610776565b5b610881848285610838565b509392505050565b600082601f83011261089e5761089d610771565b5b81356108ae848260208601610847565b91505092915050565b6000602082840312156108cd576108cc610767565b5b600082013567ffffffffffffffff8111156108eb576108ea61076c565b5b6108f784828501610889565b91505092915050565b600081519050919050565b600082825260208201905092915050565b60005b8381101561093a57808201518184015260208101905061091f565b60008484015250505050565b600061095182610900565b61095b818561090b565b935061096b81856020860161091c565b6109748161077b565b840191505092915050565b6000819050919050565b6109928161097f565b82525050565b600060a08201905081810360008301526109b28188610946565b90506109c16020830187610989565b81810360408301526109d38186610946565b905081810360608301526109e78185610946565b905081810360808301526109fb8184610946565b90509695505050505050565b60008115159050919050565b610a1c81610a07565b82525050565b600060a0820190508181036000830152610a3c8188610946565b9050610a4b6020830187610989565b8181036040830152610a5d8186610946565b90508181036060830152610a718185610946565b9050610a806080830184610a13565b9695505050505050565b610a938161097f565b8114610a9e57600080fd5b50565b600081359050610ab081610a8a565b92915050565b600080600080600060a08688031215610ad257610ad1610767565b5b600086013567ffffffffffffffff811115610af057610aef61076c565b5b610afc88828901610889565b9550506020610b0d88828901610aa1565b945050604086013567ffffffffffffffff811115610b2e57610b2d61076c565b5b610b3a88828901610889565b935050606086013567ffffffffffffffff811115610b5b57610b5a61076c565b5b610b6788828901610889565b925050608086013567ffffffffffffffff811115610b8857610b8761076c565b5b610b9488828901610889565b9150509295509295909350565b7f4e487b7100000000000000000000000000000000000000000000000000000000600052602260045260246000fd5b60006002820490506001821680610be857607f821691505b602082108103610bfb57610bfa610ba1565b5b50919050565b600081905092915050565b6000610c1782610900565b610c218185610c01565b9350610c3181856020860161091c565b80840191505092915050565b6000610c498284610c0c565b915081905092915050565b7f5573657220616c72656164792072656769737465726564000000000000000000600082015250565b6000610c8a60178361090b565b9150610c9582610c54565b602082019050919050565b60006020820190508181036000830152610cb981610c7d565b9050919050565b60008190508160005260206000209050919050565b60006020601f8301049050919050565b600082821b905092915050565b600060088302610d227fffffffffffffffffffffffffffffffffffffffffffffffffffffffffffffffff82610ce5565b610d2c8683610ce5565b95508019841693508086168417925050509392505050565b6000819050919050565b6000610d69610d64610d5f8461097f565b610d44565b61097f565b9050919050565b6000819050919050565b610d8383610d4e565b610d97610d8f82610d70565b848454610cf2565b825550505050565b600090565b610dac610d9f565b610db7818484610d7a565b505050565b5b81811015610ddb57610dd0600082610da4565b600181019050610dbd565b5050565b601f821115610e2057610df181610cc0565b610dfa84610cd5565b81016020851015610e09578190505b610e1d610e1585610cd5565b830182610dbc565b50505b505050565b600082821c905092915050565b6000610e4360001984600802610e25565b1980831691505092915050565b6000610e5c8383610e32565b9150826002028217905092915050565b610e7582610900565b67ffffffffffffffff811115610e8e57610e8d61078c565b5b610e988254610bd0565b610ea3828285610ddf565b600060209050601f831160018114610ed65760008415610ec4578287015190505b610ece8582610e50565b865550610f36565b601f198416610ee486610cc0565b60005b82811015610f0c57848901518255600182019150602085019450602081019050610ee7565b86831015610f295784890151610f25601f891682610e32565b8355505b6001600288020188555050505b50505050505056fea264697066735822122038ce4a48208e423a0defa5d8bca13affd2d30c4589ec68564dd96f1061f195b964736f6c63430008150033",
  "immutableReferences": {},
  "source": "pragma solidity ^0.8.0;\r\n\r\ncontract FaceRegistry {\r\n    struct User {\r\n        string name;\r\n        uint256 age;\r\n        string gender;\r\n        string fileHash; // Hash of the stored file for reference\r\n        string faceHash; // Face embedding hash\r\n    }\r\n\r\n    mapping(string => User) public users; // faceHash => User\r\n\r\n    function register(\r\n        string memory name,\r\n        uint256 age,\r\n        string memory gender,\r\n        string memory fileHash,\r\n        string memory faceHash\r\n    ) public {\r\n        require(bytes(users[faceHash].name).length == 0, \"User already registered\");\r\n        users[faceHash] = User(name, age, gender, fileHash, faceHash);\r\n    }\r\n\r\n    function authenticate(string memory faceHash) public view returns (\r\n        string memory name,\r\n        uint256 age,\r\n        string memory gender,\r\n        string memory fileHash,\r\n        bool success\r\n    ) {\r\n        User memory user = users[faceHash];\r\n        if (bytes(user.name).length > 0) {\r\n            return (user.name, user.age, user.gender, user.fileHash, true);\r\n        }\r\n        return (\"\", 0, \"\", \"\", false);\r\n    }\r\n}",
  "sourcePath": "C:\\Users\\shashank\\BLOCKCHAIN BASED BIOMETRIC IDENTITY MANAGEMENT SYSTEM\\blockchain\\contracts\\FaceRegistry.sol",
  "compiler": {
    "name": "solc",
    "version": "0.8.21+commit.d9974bed.Emscripten.clang"
  },
  "schemaVersion": "3.4.16",
  "updatedAt": "2025-05-14T17:00:48.993Z",
  "networkType": "ethereum",
  "devdoc": {
    "kind": "dev",
    "methods": {},
    "version": 1
  },
  "userdoc": {
    "kind": "user",
    "methods": {},
    "version": 1
  }
}